{
  "contractName": "TomShare",
  "abi": [
    {
      "inputs": [],
      "payable": false,
      "stateMutability": "nonpayable",
      "type": "constructor"
    },
    {
      "anonymous": false,
      "inputs": [
        {
          "indexed": false,
          "internalType": "uint256",
          "name": "id",
          "type": "uint256"
        },
        {
          "indexed": false,
          "internalType": "string",
          "name": "hash",
          "type": "string"
        },
        {
          "indexed": false,
          "internalType": "string",
          "name": "caption",
          "type": "string"
        },
        {
          "indexed": false,
          "internalType": "uint256",
          "name": "tomAmount",
          "type": "uint256"
        },
        {
          "indexed": false,
          "internalType": "address payable",
          "name": "author",
          "type": "address"
        }
      ],
      "name": "ImageCreated",
      "type": "event"
    },
    {
      "anonymous": false,
      "inputs": [
        {
          "indexed": false,
          "internalType": "uint256",
          "name": "id",
          "type": "uint256"
        },
        {
          "indexed": false,
          "internalType": "string",
          "name": "hash",
          "type": "string"
        },
        {
          "indexed": false,
          "internalType": "string",
          "name": "caption",
          "type": "string"
        },
        {
          "indexed": false,
          "internalType": "uint256",
          "name": "tomAmount",
          "type": "uint256"
        },
        {
          "indexed": false,
          "internalType": "address payable",
          "name": "author",
          "type": "address"
        }
      ],
      "name": "ImageTipped",
      "type": "event"
    },
    {
      "constant": true,
      "inputs": [
        {
          "internalType": "uint256",
          "name": "",
          "type": "uint256"
        }
      ],
      "name": "images",
      "outputs": [
        {
          "internalType": "uint256",
          "name": "id",
          "type": "uint256"
        },
        {
          "internalType": "string",
          "name": "hash",
          "type": "string"
        },
        {
          "internalType": "string",
          "name": "caption",
          "type": "string"
        },
        {
          "internalType": "uint256",
          "name": "tomAmount",
          "type": "uint256"
        },
        {
          "internalType": "address payable",
          "name": "author",
          "type": "address"
        }
      ],
      "payable": false,
      "stateMutability": "view",
      "type": "function"
    },
    {
      "constant": true,
      "inputs": [],
      "name": "name",
      "outputs": [
        {
          "internalType": "string",
          "name": "",
          "type": "string"
        }
      ],
      "payable": false,
      "stateMutability": "view",
      "type": "function"
    },
    {
      "constant": true,
      "inputs": [],
      "name": "postCount",
      "outputs": [
        {
          "internalType": "uint256",
          "name": "",
          "type": "uint256"
        }
      ],
      "payable": false,
      "stateMutability": "view",
      "type": "function"
    },
    {
      "constant": false,
      "inputs": [
        {
          "internalType": "string",
          "name": "_imgHash",
          "type": "string"
        },
        {
          "internalType": "string",
          "name": "_caption",
          "type": "string"
        }
      ],
      "name": "uploadImage",
      "outputs": [],
      "payable": false,
      "stateMutability": "nonpayable",
      "type": "function"
    },
    {
      "constant": false,
      "inputs": [
        {
          "internalType": "uint256",
          "name": "_id",
          "type": "uint256"
        }
      ],
      "name": "tipOwner",
      "outputs": [],
      "payable": true,
      "stateMutability": "payable",
      "type": "function"
    }
  ],
  "bytecode": "0x6080604052600060015534801561001557600080fd5b506040518060400160405280600881526020017f546f6d536861726500000000000000000000000000000000000000000000000081525060009080519060200190610061929190610067565b5061010c565b828054600181600116156101000203166002900490600052602060002090601f016020900481019282601f106100a857805160ff19168380011785556100d6565b828001600101855582156100d6579182015b828111156100d55782518255916020019190600101906100ba565b5b5090506100e391906100e7565b5090565b61010991905b808211156101055760008160009055506001016100ed565b5090565b90565b610e458061011b6000396000f3fe60806040526004361061004a5760003560e01c806306fdde031461004f57806317906c2e146100df5780635611b8c81461010a5780638485648214610138578063a91b831414610299575b600080fd5b34801561005b57600080fd5b506100646103f8565b6040518080602001828103825283818151815260200191508051906020019080838360005b838110156100a4578082015181840152602081019050610089565b50505050905090810190601f1680156100d15780820380516001836020036101000a031916815260200191505b509250505060405180910390f35b3480156100eb57600080fd5b506100f4610496565b6040518082815260200191505060405180910390f35b6101366004803603602081101561012057600080fd5b810190808035906020019092919050505061049c565b005b34801561014457600080fd5b506101716004803603602081101561015b57600080fd5b81019080803590602001909291905050506108f7565b6040518086815260200180602001806020018581526020018473ffffffffffffffffffffffffffffffffffffffff1673ffffffffffffffffffffffffffffffffffffffff168152602001838103835287818151815260200191508051906020019080838360005b838110156101f35780820151818401526020810190506101d8565b50505050905090810190601f1680156102205780820380516001836020036101000a031916815260200191505b50838103825286818151815260200191508051906020019080838360005b8381101561025957808201518184015260208101905061023e565b50505050905090810190601f1680156102865780820380516001836020036101000a031916815260200191505b5097505050505050505060405180910390f35b3480156102a557600080fd5b506103f6600480360360408110156102bc57600080fd5b81019080803590602001906401000000008111156102d957600080fd5b8201836020820111156102eb57600080fd5b8035906020019184600183028401116401000000008311171561030d57600080fd5b91908080601f016020809104026020016040519081016040528093929190818152602001838380828437600081840152601f19601f8201169050808301925050505050505091929192908035906020019064010000000081111561037057600080fd5b82018360208201111561038257600080fd5b803590602001918460018302840111640100000000831117156103a457600080fd5b91908080601f016020809104026020016040519081016040528093929190818152602001838380828437600081840152601f19601f820116905080830192505050505050509192919290505050610a7d565b005b60008054600181600116156101000203166002900480601f01602080910402602001604051908101604052809291908181526020018280546001816001161561010002031660029004801561048e5780601f106104635761010080835404028352916020019161048e565b820191906000526020600020905b81548152906001019060200180831161047157829003601f168201915b505050505081565b60015481565b6000811180156104ae57506001548111155b6104b757600080fd5b6104bf610d26565b600260008381526020019081526020016000206040518060a001604052908160008201548152602001600182018054600181600116156101000203166002900480601f0160208091040260200160405190810160405280929190818152602001828054600181600116156101000203166002900480156105805780601f1061055557610100808354040283529160200191610580565b820191906000526020600020905b81548152906001019060200180831161056357829003601f168201915b50505050508152602001600282018054600181600116156101000203166002900480601f0160208091040260200160405190810160405280929190818152602001828054600181600116156101000203166002900480156106225780601f106105f757610100808354040283529160200191610622565b820191906000526020600020905b81548152906001019060200180831161060557829003601f168201915b50505050508152602001600382015481526020016004820160009054906101000a900473ffffffffffffffffffffffffffffffffffffffff1673ffffffffffffffffffffffffffffffffffffffff1673ffffffffffffffffffffffffffffffffffffffff168152505090506000816080015190508073ffffffffffffffffffffffffffffffffffffffff166108fc349081150290604051600060405180830381858888f193505050501580156106dc573d6000803e3d6000fd5b50348260600151018260600181815250508160026000858152602001908152602001600020600082015181600001556020820151816001019080519060200190610727929190610d6b565b506040820151816002019080519060200190610744929190610d6b565b506060820151816003015560808201518160040160006101000a81548173ffffffffffffffffffffffffffffffffffffffff021916908373ffffffffffffffffffffffffffffffffffffffff1602179055509050507f1be5317bca8d3f70dc1efe89958be71bff36cdca33fc00a6423e25eb2f1d492f83836020015184604001518560600151856040518086815260200180602001806020018581526020018473ffffffffffffffffffffffffffffffffffffffff1673ffffffffffffffffffffffffffffffffffffffff168152602001838103835287818151815260200191508051906020019080838360005b8381101561084d578082015181840152602081019050610832565b50505050905090810190601f16801561087a5780820380516001836020036101000a031916815260200191505b50838103825286818151815260200191508051906020019080838360005b838110156108b3578082015181840152602081019050610898565b50505050905090810190601f1680156108e05780820380516001836020036101000a031916815260200191505b5097505050505050505060405180910390a1505050565b6002602052806000526040600020600091509050806000015490806001018054600181600116156101000203166002900480601f0160208091040260200160405190810160405280929190818152602001828054600181600116156101000203166002900480156109a95780601f1061097e576101008083540402835291602001916109a9565b820191906000526020600020905b81548152906001019060200180831161098c57829003601f168201915b505050505090806002018054600181600116156101000203166002900480601f016020809104026020016040519081016040528092919081815260200182805460018160011615610100020316600290048015610a475780601f10610a1c57610100808354040283529160200191610a47565b820191906000526020600020905b815481529060010190602001808311610a2a57829003601f168201915b5050505050908060030154908060040160009054906101000a900473ffffffffffffffffffffffffffffffffffffffff16905085565b6000825111610a8b57600080fd5b6000815111610a9957600080fd5b600073ffffffffffffffffffffffffffffffffffffffff163373ffffffffffffffffffffffffffffffffffffffff161415610ad357600080fd5b6001600081548092919060010191905055506040518060a001604052806001548152602001838152602001828152602001600081526020013373ffffffffffffffffffffffffffffffffffffffff16815250600260006001548152602001908152602001600020600082015181600001556020820151816001019080519060200190610b60929190610d6b565b506040820151816002019080519060200190610b7d929190610d6b565b506060820151816003015560808201518160040160006101000a81548173ffffffffffffffffffffffffffffffffffffffff021916908373ffffffffffffffffffffffffffffffffffffffff1602179055509050507fc1d8dfa99b3f84f95d3f0bc4a768addeb97b83b20aef7f9cb6729e126bafd2f960015483836000336040518086815260200180602001806020018581526020018473ffffffffffffffffffffffffffffffffffffffff1673ffffffffffffffffffffffffffffffffffffffff168152602001838103835287818151815260200191508051906020019080838360005b83811015610c7d578082015181840152602081019050610c62565b50505050905090810190601f168015610caa5780820380516001836020036101000a031916815260200191505b50838103825286818151815260200191508051906020019080838360005b83811015610ce3578082015181840152602081019050610cc8565b50505050905090810190601f168015610d105780820380516001836020036101000a031916815260200191505b5097505050505050505060405180910390a15050565b6040518060a0016040528060008152602001606081526020016060815260200160008152602001600073ffffffffffffffffffffffffffffffffffffffff1681525090565b828054600181600116156101000203166002900490600052602060002090601f016020900481019282601f10610dac57805160ff1916838001178555610dda565b82800160010185558215610dda579182015b82811115610dd9578251825591602001919060010190610dbe565b5b509050610de79190610deb565b5090565b610e0d91905b80821115610e09576000816000905550600101610df1565b5090565b9056fea265627a7a72315820ced3c6698cf65e33ce5152dc7d141f814afa05130b3a780d933c57bba1e84d8a64736f6c63430005100032",
  "source": "pragma solidity ^0.5.0;\n\ncontract TomShare {\n    // Code goes here...\n    string public name;\n    uint256 public postCount = 0;\n    mapping(uint256 => Image) public images;\n\n    struct Image {\n        uint256 id;\n        string hash;\n        string caption;\n        uint256 tomAmount;\n        address payable author;\n    }\n\n    event ImageCreated(\n        uint256 id,\n        string hash,\n        string caption,\n        uint256 tomAmount,\n        address payable author\n    );\n\n    event ImageTipped(\n        uint256 id,\n        string hash,\n        string caption,\n        uint256 tomAmount,\n        address payable author\n    );\n\n    constructor() public {\n        name = \"TomShare\";\n    }\n\n    function uploadImage(string memory _imgHash, string memory _caption)\n        public\n    {\n        require(bytes(_imgHash).length > 0);\n        require(bytes(_caption).length > 0);\n        require(msg.sender != address(0x0));\n        postCount++;\n        images[postCount] = Image(postCount, _imgHash, _caption, 0, msg.sender);\n\n        emit ImageCreated(postCount, _imgHash, _caption, 0, msg.sender);\n    }\n\n    function tipOwner(uint256 _id) public payable {\n        require(_id > 0 && _id <= postCount);\n        Image memory _image = images[_id];\n        address payable _author = _image.author;\n        address(_author).transfer(msg.value);\n        _image.tomAmount = _image.tomAmount + msg.value;\n        images[_id] = _image;\n        emit ImageTipped(\n            _id,\n            _image.hash,\n            _image.caption,\n            _image.tomAmount,\n            _author\n        );\n    }\n}\n",
  "sourcePath": "/media/samarpan/DATA1/ETHOdessey/tomshare/src/contracts/TomShare.sol",
  "compiler": {
    "name": "solc",
    "version": "0.5.16+commit.9c3226ce.Emscripten.clang"
  },
  "schemaVersion": "3.4.2",
  "updatedAt": "2021-08-08T02:16:28.928Z",
  "networkType": "ethereum",
  "devdoc": {
    "methods": {}
  },
  "userdoc": {
    "methods": {}
  }
}